:10000000A0270020C9390000BF9200009D390000E0
:100010009D3900009D3900009D390000000000005E
:100020000000000000000000000000007932000025
:100030009D39000000000000253200009D390000BD
:100040002933000029330000293300002933000040
:100050002933000029330000293300002933000030
:100060002933000029330000293300002933000020
:100070002933000029330000293300002933000010
:100080002933000029330000293300002933000000
:1000900029330000293300002933000029330000F0
:1000A00029330000293300002933000029330000E0
:1000B00029330000293300002933000029330000D0
:1000C00029330000293300002933000029330000C0
:1000D00029330000293300002933000029330000B0
:1000E00029330000293300002933000029330000A0
:1000F0002933000029330000293300002933000090
:100100004FF0FF0C1CEAD0521EBF1CEAD15392EAFA
:100110000C0F93EA0C0F6FD01A4480EA010C4002D6
:1001200018BF5FEA41211ED04FF0006343EA501030
:1001300043EA5111A0FB01310CF00040B1F5000F72
:100140003EBF490041EAD3715B0040EA010062F121
:100150007F02FD2A1DD8B3F1004F40EBC25008BF0B
:1001600020F00100704790F0000F0CF0004C08BF29
:1001700049024CEA502040EA51207F3AC2BFD2F1F6
:10018000FF0340EAC250704740F400004FF0000304
:10019000013A5DDC12F1190FDCBF00F0004070473E
:1001A000C2F10002410021FA02F1C2F1200200FA7C
:1001B00002FC5FEA310040F1000053EA4C0308BF43
:1001C00020EADC70704792F0000F00F0004C02BF94
:1001D000400010F4000F013AF9D040EA0C0093F00F
:1001E000000F01F0004C02BF490011F4000F013B69
:1001F000F9D041EA0C018FE70CEAD15392EA0C0FD7
:1002000018BF93EA0C0F0AD030F0004C18BF31F041
:10021000004CD8D180EA010000F00040704790F017
:10022000000F17BF90F0004F084691F0000F91F0BB
:10023000004F14D092EA0C0F01D142020FD193EA81
:100240000C0F03D14B0218BF084608D180EA010009
:1002500000F0004040F0FE4040F40000704740F0E5
:10026000FE4040F44000704780F0004002E000BFD4
:1002700081F0004142001FBF5FEA410392EA030F91
:100280007FEA226C7FEA236C6AD04FEA1262D2EBDB
:100290001363C1BFD218414048404140B8BF5B42E0
:1002A000192B88BF704710F0004F40F4000020F079
:1002B0007F4018BF404211F0004F41F4000121F08F
:1002C0007F4118BF494292EA030F3FD0A2F10102D9
:1002D00041FA03FC10EB0C00C3F1200301FA03F117
:1002E00000F0004302D5494260EB4000B0F5000F3A
:1002F00013D3B0F1807F06D340084FEA310102F1F9
:100300000102FE2A51D2B1F1004F40EBC25008BFAA
:1003100020F0010040EA03007047490040EB000074
:10032000013A28BFB0F5000FEDD2B0FA80FCACF175
:10033000080CB2EB0C0200FA0CF0AABF00EBC250A2
:1003400052421843BCBFD0401843704792F0000F90
:1003500081F4000106BF80F400000132013BB5E7E3
:100360004FEA41037FEA226C18BF7FEA236C21D059
:1003700092EA030F04D092F0000F08BF08467047BE
:1003800090EA010F1CBF0020704712F07F4F04D18C
:10039000400028BF40F00040704712F100723CBF9F
:1003A00000F50000704700F0004343F0FE4040F4C9
:1003B000000070477FEA226216BF08467FEA236387
:1003C0000146420206BF5FEA412390EA010F40F472
:1003D000800070474FF0000304E000BF10F00043BE
:1003E00048BF40425FEA000C08BF704743F09643A5
:1003F00001464FF000001CE050EA010208BF7047C0
:100400004FF000030AE000BF50EA010208BF704746
:1004100011F0004302D5404261EB41015FEA010C5B
:1004200002BF84460146002043F0B64308BFA3F153
:100430008053A3F50003BCFA8CF2083AA3EBC25335
:1004400010DB01FA02FC634400FA02FCC2F1200254
:10045000BCF1004F20FA02F243EB020008BF20F08B
:100460000100704702F1200201FA02FCC2F12002F1
:1004700050EA4C0021FA02F243EB020008BF20EAE6
:10048000DC70704742000ED2B2F1FE4F0BD34FF03A
:100490009E03B3EB126209D44FEA002343F00043FA
:1004A00023FA02F070474FF00000704712F1610F1D
:1004B00001D1420202D14FF0FF3070474FF00000EF
:1004C000704700BF53B94AB9002908BF00281CBFB4
:1004D0004FF0FF314FF0FF3000F00CB8ADF1080CD9
:1004E0006DE904CE00F008F8DDF804E0DDE9022350
:1004F00004B07047704700BF2DE9F04F07468C46A7
:100500000846099E15463C461946002B40F0C68019
:100510008242B2FA82F746D94FB1C7F1200E24FACF
:100520000EFE00FA07F3BD404EEA030CBC404FEA52
:1005300015481FFA85FEBCFBF8F9220C08FB19C30D
:1005400009FB0EFA42EA03439A4528D9EB1809F150
:10055000FF3004D29A4502D9A9F102002B44A3EB43
:100560000A03A4B2B3FBF8F208FB123302FB0EFE3F
:1005700044EA0344A64514D92C1902F1FF3303D2EF
:10058000A64501D9931E2C44A4EB0E0443EA004077
:100590001EB1FC40002334607360BDE8F08F484614
:1005A000DDE71346F0E702B9FFDE87BB831A0121BE
:1005B0004FEA154EAAB2B3FBFEFC200C0EFB1C3317
:1005C0000CFB02F840EA0343984563D9EB180CF1A1
:1005D000FF3004D2984502D9ACF102002B44A3EBC2
:1005E0000803A4B2B3FBFEFC0EFB1C330CFB02F2AF
:1005F00044EA0344A2424FD92C190CF1FF3304D230
:10060000A24202D9ACF102032C44A41ABEE7C7F1FE
:10061000200C20FA0CF800FA07F324FA0CFCBD4079
:100620004CEA03024FEA154EABB2B8FBFEFC110CCC
:100630000EFB1C800CFB03F941EA0040814504FAE3
:1006400007F423D928180CF1FF3104D2814502D9CF
:10065000ACF102012844A0EB090092B2B0FBFEFC11
:100660000EFB1C000CFB03F842EA004398450FD92F
:10067000EB180CF1FF3204D2984502D9ACF102021A
:100680002B44A3EB080342EA014191E76146E2E70C
:100690006246F6E76046A2E76346B6E7834205D9BD
:1006A0000EB1C6E900700021084676E7B3FA83F17F
:1006B00081B9834201D3BA420AD8BC1A60EB030362
:1006C00001209C46002E68D0C6E9004C002164E75A
:1006D0000846F7E7C1F1200C8B4022FA0CF41C43CA
:1006E00002FA01F500FA01F327FA0CF220FA0CFBEA
:1006F0004FEA14491343BBFBF9F81FFA84FE09FBC8
:1007000018BB1A0C08FB0EFA42EA0B42924507FA94
:1007100001F73ED9A21808F1FF3004D2924502D960
:10072000A8F102002244A2EB0A029BB2B2FBF9F844
:1007300009FB182208FB0EFE43EA024296452AD91D
:10074000A21808F1FF3304D2964502D9A8F102039A
:10075000224443EA0040A0FB0593A2EB0E029A421A
:10076000CE46984602D306D14F4504D2B9EB050ECA
:1007700063EB0408013886B1B7EB0E0362EB0807A0
:1007800007FA0CFCCB404CEA0303CF40C6E9003724
:100790009CE74046C7E74346DBE73146FDE60000FD
:1007A0002DE9F04104680379276901259D406368BC
:1007B0001B681D420E460ED11849194A194840F2CD
:1007C000924308F0E6FC184808F0E3FC144840F2B5
:1007D000924108F0D7FC3B681D4263681B6818BF54
:1007E00086F001061D420ED10C490D4A0D484FF40A
:1007F0008D6308F0CEFC0C4808F0CBFC08484FF4A1
:100800008D6108F0BFFC36B1A368DB68294620463D
:10081000BDE8F0411847A3681B69F7E7C9A00000CD
:1008200098A0000007A1000024A100002DE9F14FCD
:10083000C488056806790C4304F03003302BD5E9F1
:1008400001B92F690ED13C493C4A3D484FF42E7303
:1008500008F09FFC3B4808F09CFC38484FF42E7190
:1008600008F090FC04F00213022B0ED13649334AF3
:1008700033484FF42F7308F08CFC344808F089FC9F
:100880002E484FF42F7108F07DFC04F00603042B72
:100890000BD12F492A48294A4FF4307308F079FCCC
:1008A00026484FF4307108F06DFC14F4402810D045
:1008B000A3030ED42749214A214840F2C32308F05C
:1008C00068FC254808F065FC1C4840F2C32108F08C
:1008D00059FCE00206D5B8F1000F03D0E10748BF8C
:1008E00084F44024012303FA06FADBF800301AEA04
:1008F000030F24F480180ED11849104A10484FF401
:10090000357308F046FC164808F043FC0B484FF4DA
:10091000357108F037FC3B68E2074CBF4AEA030335
:1009200023EA0A033B60D9F80030424631462846A4
:1009300001B0BDE8F04F184736A1000098A00000B4
:1009400007A100006FA10000ACA10000E1A1000020
:1009500033A2000066A20000ACA20000C9A0000003
:1009600024A1000070B50568037901249C406B68E0
:100970001B681C420ED10B490B4A0C4840F2BC4389
:1009800008F007FC0A4808F004FC074840F2BC41A4
:1009900008F0F8FBAB68214628465B69BDE870406B
:1009A000184700BFC9A0000098A0000007A10000E0
:1009B00024A1000070B5324D324E334C4FF0FF325F
:1009C0004FF0FF33284606F035FA08F098FA0B4648
:1009D0000246304608F0E3FA21682C4808F0DFFAB6
:1009E00023681D2B18DD2A480121FFF7D9FE0028B6
:1009F00011DB00212748FFF7D3FE00280BDB002185
:100A00002548FFF7CDFE002805DB00212348FFF72E
:100A1000C7FE0028D2DA70BDA3F11402092A07D854
:100A20001B480121FFF7BCFE0028F4DB0121E1E7B0
:100A3000A3F10A02092A0DD815480121FFF7B0FEDB
:100A40000028E8DB13480121FFF7AAFE0028E2DBBB
:100A50000121D5E7092BB1D80D480121FFF7A0FEF0
:100A60000028D8DB0B480121FFF79AFE0028D2DBD3
:100A700009480121FFF794FE0028CCDB0121C5E7DE
:100A8000AC050020E7A200009805002019A3000093
:100A9000D09D0000D89D0000E09D0000E89D000072
:100AA000F0B5234F234E8BB000244FF0FF324FF0B0
:100AB000FF33384606F0BEF908F021FA02460B462D
:100AC0001D4808F06CFA31681C4808F068FA092CD7
:100AD0001BDD6A460923516842F8041B013BFAD129
:100AE00033680993082D19DD00216A460B4652F838
:100AF000040B01330A2B0144F9D191FBF3F1104BA4
:100B00001048196008F04BFA08E00AAB03EB8503C4
:100B1000326843F8282C05F10105E3D00A4806F0B5
:100B20004BF92146094808F03AFA0134BDE700BF05
:100B30009C050020CC05002026A3000058A300003F
:100B4000980500206AA30000AC0500207DA30000EA
:100B5000F0B5304F304D314E87B008F0D0F90B462C
:100B60000246384608F01BFA1422002101A808F0BA
:100B7000FEFB0223CDE9023504930A238DF81430DD
:100B8000274B186888B9274808F009FA4FF0FF3456
:100B90002548214608F003FA244806F00DF9002103
:100BA0004FF4004007F082FAD7E7836801A95B6839
:100BB00098470446C8B101461D4808F0F0F9E7E738
:100BC0001C4808F0ECF92B884FF47A705843FFF773
:100BD00005FC3146FFF794FAFFF754FC642380B21A
:100BE000B0FBF3F0144B1860D6E72C88B4F5806F97
:100BF000E6D24FF47A706043FFF7F0FB3146FFF71F
:100C00007FFAFFF73FFC214682B20C4808F0C7F993
:100C1000D9E700BF8EA30000EC0E00200C30403B53
:100C200088050020C0A300000FA400009C05002040
:100C3000EFA3000038A40000CC05002053A400005E
:100C40002DE9F047244EDFF89480254F306806F0F8
:100C500055FF08F054F904460D4608F050F90246D5
:100C60000B46404608F09BF9DFF87890DFF878A053
:100C700008F045F941F28833001B61EB0501984209
:100C800071F100030CDB194B186806F007FD184BD7
:100C9000186806F003FD174B186806F0FFFCD5E74F
:100CA0003846FFF75FFE002814DB4846FFF75AFE80
:100CB00000280FDB5046FFF755FE00280ADB0E48E0
:100CC000FFF750FE002805DB002140F6CD4007F07D
:100CD000EDF9CDE7BDE8F087C805002075A4000058
:100CE000D09D0000D89D0000E09D0000BC050020C4
:100CF000C0050020C4050020E89D000008B5144B85
:100D0000186806F0FBFE134B186806F0F7FE124B4E
:100D1000186806F0F3FE11480021FFF741FD002896
:100D200015DB0F480021FFF73BFD00280FDB0D48C6
:100D30000021FFF735FD002809DB0B480021FFF7F4
:100D40002FFD002803DB094B186806F0A7FC08BD3F
:100D5000BC050020C0050020C4050020D09D000077
:100D6000D89D0000E09D0000E89D0000C80500201F
:100D70002DE9F04389B001220021714808F034FECA
:100D8000012200216F4808F02FFE6F4D284608F021
:100D9000D3FD002800F0D1804FF4D0116B48FFF74D
:100DA00045FD011E05DA6A4809B0BDE8F04308F0C8
:100DB000F6B8284608F0C0FD002800F0BE804FF4C9
:100DC000D0116448FFF732FD011E01DA6248EBE7FB
:100DD000284608F0B1FD002800F0AF804FF4D01194
:100DE0005E48FFF723FD011EF0DB284608F0A4FD56
:100DF000002800F0A2804FF4D0115948FFF716FDEB
:100E0000011EE3DB284608F097FD10B92968554814
:100E1000CAE74FF480315448FFF708FD011E01DA9C
:100E20005248C1E7D5E901341B681B050ED450496F
:100E3000504A514840F2752308F0ABF94F4808F08A
:100E4000A8F94C4840F2752108F09CF90B21A469DF
:100E50003D484FF080634FF0A072A047011E01DAB9
:100E60004748A1E74748484C05F0DAF9206010B937
:100E7000464808F094F82068836845491B689847FD
:100E8000014610B1434808F08AF8434B0127DF6060
:100E90004FF000084FF0000900240226CDE9068932
:100EA000CDE90364CDE901443C4B3D4900944FF446
:100EB00080623C4805F092FC3B4B18603B4B3C4940
:100EC0000094CDE90689CDE90364CDE901444FF4EE
:100ED0008062384805F082FC374B1860374B384940
:100EE0000094CDE90689CDE90364CDE901444FF4CE
:100EF0008062344805F072FC334B1860334B344940
:100F000034480094CDE90689CDE90364CDE9014474
:100F10004FF4806205F062FC2F4B30491860304B73
:100F20004B604FF400638B60AB68DB692BB1064804
:100F30003A4609B0BDE8F043184709B0BDE8F08370
:100F40009C050020AC050020349B0000D09D0000D3
:100F5000A7A40000D89D0000DEA40000E09D0000D2
:100F6000E89D000015A50000C89D00003BA50000FD
:100F7000C9A0000098A0000007A1000024A1000063
:100F800074A50000B7A5000088050020BDA50000DD
:100F900090A00000DEA5000000700040510B000092
:100FA0002013002060020020BC050020A10A0000E0
:100FB00040170020E0020020C0050020B509000015
:100FC000601B002060030020C4050020410C0000CD
:100FD000801F0020E0030020C80500208C050020B1
:100FE000FD0C00002DE9F04F8DB01F46029202F07B
:100FF0000403C2F3C2020193531C8207DDF8589028
:10100000049305460E4640F05882041D002840F027
:10101000578201F00706341DC6F108064FF0000A9A
:101020004FF004087B1ECDF80CA052465146CDF877
:10103000008005B127600498002807DCCB48874270
:10104000C0F04881CA48874280F04481029810F07D
:10105000020E00F064814FF0010C601BBEF1000F26
:1010600000F03E81B0F5007FC0F03A81C149C24A2C
:10107000C2484FF4F87308F08CF8C14808F089F8BA
:101080004FF4F871BC4808F07DF86FF01500FBE0F4
:1010900041B9252840F0478101214FF00408CDF8DF
:1010A000008040E12B2825D81F2801D800213AE1F3
:1010B000A0F1200CBCF10B0FF8D80FF2080E5EF86F
:1010C0002CF000BF27130000AD100000AD10000091
:1010D00027130000AD100000AD100000AD1000009F
:1010E000AD100000AD100000AD100000A312000014
:1010F00027130000A0F12D0C5FFA8CFEBEF14D0FFE
:10110000D4D8BCF14D0FD1D80FF2040E5EF82CF0FC
:101110002713000027130000AD1000002713000064
:1011200027130000271300002713000027130000D7
:1011300027130000271300002713000027130000C7
:1011400027130000AD100000AD100000AD1000002E
:10115000AD100000AD100000AD100000AD1000009B
:1011600067120000AD100000AD100000AD100000CF
:10117000671200006712000067120000AD10000047
:10118000AD100000AD100000AD10000027130000EE
:10119000AD100000AD100000AD100000AD1000005B
:1011A000AD100000AD100000AD100000AD1000004B
:1011B000AD100000AD100000AD100000491200009D
:1011C000AD100000AD100000AD100000AD1000002B
:1011D000AD100000AD100000AD100000AD1000001B
:1011E00067120000AD100000491200004912000013
:1011F000671200006712000067120000271300004A
:101200004912000097120000AD10000027130000E3
:10121000AD1000009D120000491200009D12000058
:10122000AD100000AD1000009D1200009B100000EA
:1012300049120000AD100000AD100000491200007E
:10124000AD1000009B10000013F8011C6C2927D181
:1012500013F8021C6C294FF0000138D04FF004083D
:10126000CDF800801DE009F1070929F007090734CE
:10127000F9E8020124F007045DB1DDF814E0A644AA
:10128000B64504D96FF01B000DB0BDE8F08FC4E97E
:101290000001083400214FF0080800E70021DDE7D5
:1012A0000021013C4444C8F1000C04EA0C0435B1AF
:1012B000DDF800C0ACEB050CA444B445E2D87328BB
:1012C00070D1049859F8047B01380490B1E64FF0CE
:1012D0000808C5E702984FF0000C00F0020EBCE6CB
:1012E0000F2A0CD92349244A244840F2F51307F069
:1012F00050FF244807F04DFF40F2F511C2E675B3E8
:101300000DF1300EC0F387009644BCF1000F20D0E1
:1013100060F07F000EF8100C0AF1010A0132C5F1ED
:1013200008000434059013F8010F00287FF4B0AED4
:10133000611BB1F5806F5FD30E490F4A0F4840F231
:101340003D2307F026FF104807F023FF40F23D2120
:1013500098E60EF8100C039801300390DEE7BCF11C
:10136000000F01D1019888B10136D7E7A49A000097
:1013700074BE0000AAA200000DA6000007A1000094
:101380003BA600005CA600008BA600003846CDE915
:101390000632059107F0C4FF0236DDE906320599F1
:1013A0000644BBE70098042808D109F1040C15B1E4
:1013B000D9F8000020600434E146B4E7009808281A
:1013C0000CD109F1070020F0070000F108091DB158
:1013D000D0E900BCC4E900BC0834A4E73A4A3B4960
:1013E0003B4840F2312307F0D4FE0099394807F01A
:1013F000D0FE40F2312145E61DB9A6F1080460187F
:1014000042E7019B2860890829709DF80C10A3B160
:101410006870E97085F802A0BAF1000F06D008A83C
:101420004FF0000CC5F1010E62450AD10DF1200804
:1014300008EB0209C5F1010B39E0019B6970EB7003
:10144000E8E710F8011B0B0608D504EB0E08B045C1
:1014500001F07F013FF616AF04F8011B0CF1010CFF
:10146000E2E7BAF1000F03D098F90020002A1CDB54
:10147000019B03BB98F8002055F8227045F82230F4
:10148000384607F04DFF421C04EB0B011144B142FA
:101490003FF6F8AE98F8001004F8011B39462046D4
:1014A000009207F059FF009A144408F10108C14561
:1014B000D7D1601BE8E60022E6E76FF00D00E3E617
:1014C00007293FF6ABADDDE60DA60000AAA200009D
:1014D00007A1000076A6000038B54468816004F0DA
:1014E0000304032C054602D02CB1002000E0006864
:1014F00000236B6038BD054A05490648452307F0BF
:1015000048FE0248452107F03DFEEEE7A2A6000096
:10151000AAA2000007A10000014B1860704700BF9D
:10152000980000202DE9F74FB0F81C90009219F0B8
:10153000080F044622D001290CBF49F0100949F0D8
:101540002009A0F81C901434204605F02DFA68B943
:101550009B4A9C499C48B92307F01BFE9B482146A7
:1015600007F017FE9648B92107F00CFE009B83F3A5
:101570001188BFF36F8F03B0BDE8F08F944FDFF891
:10158000488209F00709022906D1204607F014FD18
:101590000028D8D0012864D1D4F818B0A38BBBF1AF
:1015A000000F19DA0026256823F00703C4E9006656
:1015B00043F00103A383A38B03F007024A45019282
:1015C00003D0A268002A40F0138115B9002E00F064
:1015D00059814FF0000A0DE103F00702511F012964
:1015E00020D8002123F00703062A25689BB2C4E90E
:1015F00000110AD13DB1E28B29460968013292B24D
:101600000029FAD1E28343F00203A383204607F0C6
:10161000D3FC06460028CED0A38B43F02003A3833F
:101620000026C8E7042A0DD123F007039AB2A2834B
:10163000204607F0C1FC054688B142F02002A28393
:101640000025EDE7634940F21B133A46404607F098
:10165000A0FD40F21B11384607F094FD00252E46F0
:10166000A9E7032834D1B9F1000F0BD05A494046FD
:101670004FF4AB733A4607F08CFD4FF4AB7138462C
:1016800007F080FD23685BB95449404640F2571388
:101690003A4607F07EFD40F25711384607F072FDDA
:1016A00023691E685EB94E4940464FF4AD733A4611
:1016B00007F06FFD4FF4AD71384607F063FDA38B63
:1016C00023F0070343F00603A3830025AB4672E72C
:1016D000042831D1B9F1020F0BD04249404640F203
:1016E0005D133A4607F055FD40F25D11384607F0AC
:1016F00049FDE38B5BB13C4940464FF4AF733A463A
:1017000007F047FD4FF4AF71384607F03BFD236902
:101710005E685EB93249404640F261133A4607F0CE
:1017200038FD40F26111384607F02CFDA38B23F001
:10173000070343F00403C7E7052831D1B9F1010FCE
:101740000BD02A4940464FF4B2733A4607F021FDC8
:101750004FF4B271384607F015FD23685BB91F4995
:10176000404640F265133A4607F013FD40F265111A
:10177000384607F007FD23699E685EB91849404660
:101780004FF4B4733A4607F004FD4FF4B471384691
:1017900007F0F8FCA38B23F0070343F0050393E75E
:1017A0000C4940F26B133A46404607F0F2FC002524
:1017B00040F26B11384607F0E5FC2E4686E700BF85
:1017C00068A7000095A7000007A10000ACA70000D3
:1017D000C5A60000AAA20000E7A60000F3A600002C
:1017E00016A700002DA7000043A7000052A7000085
:1017F0004FF0010A43F0080304F11409A38348469B
:1018000005F0D2F868B9384A3849B923404607F09C
:10181000C0FC3748494607F0BCFC3348B92107F003
:10182000B1FC009B83F31188BFF36F8FBAF1000FF7
:1018300037D1002D47D116B12E492046B0474FF081
:101840002003EFF3118B83F31288BFF36F8F4846A9
:10185000CDF800B005F09AF868B9234A26498E23DE
:10186000404607F096FC2548494607F092FC1E4882
:101870008E2107F087FC484605F0A6F8A38B23F0DD
:101880000803A383A38BDA0625D523F01003A383D3
:101890000121B4F81C9009F0070900297FF473AE08
:1018A00051E6A1680029C4D0D1F800A04B68019A84
:1018B0009C4620465B46E047BAF1000FB9D051463E
:1018C000DAF800A0F2E72946019A2D685B46204627
:1018D00007F08EFBADE713F020011EBF23F02003BD
:1018E000A3830221D5E700BF68A7000095A70000E9
:1018F000ACA7000001190000C1A70000D6A7000096
:10190000F8B504460D4600F114064FF02003EFF33E
:10191000118783F31288BFF36F8F304605F036F8D6
:1019200068B90C4A0C490D488E2307F032FC0C486C
:10193000314607F02EFC07488E2107F023FC304685
:1019400005F042F8A5613A4620460121BDE8F8407D
:10195000FFF7E8BD68A70000C1A7000007A10000CD
:10196000D6A700002DE9F04704460F4607F056FBC6
:10197000051E5EDB04F114094FF02003EFF3118A1A
:1019800083F31288BFF36F8F484604F0FFFF68B9F6
:10199000384A394939488E2307F0FBFB3848494615
:1019A00007F0F7FB33488E2107F0ECFB484605F0C3
:1019B0000BF8E38BA28B4FF6FF718B4202F0070608
:1019C00050D0022E24D10133E38335464FF0010875
:1019D000484604F0E9FF68B9264A2A492748B9234E
:1019E00007F0D7FB2848494607F0D3FB2148B92127
:1019F00007F0C8FB8AF31188BFF36F8FB8F1000FAF
:101A000017D0002332463946204607F0F1FA10E09D
:101A1000930701D0062E0FD100233B606368F3B912
:101A2000C4E900773546FEB9524602212046FFF749
:101A300079FD2846BDE8F087052E18D0012E0BD081
:101A400012490E48124A40F2C91307F0A2FB10488F
:101A500040F2C91107F096FB6FF0040504E01F6027
:101A60006760DFE76FF00A054FF00008B0E76FF03E
:101A70008505F9E768A70000C1A7000007A10000DD
:101A8000D6A7000095A70000ACA7000052A7000051
:101A9000C5A60000B2F5802F2DE9F04104460E46A0
:101AA00017466AD33E493F4A3F4840F2E31307F0E6
:101AB00070FB3E4807F06DFB40F2E311394807F038
:101AC00061FB043FF51D3E4425F0070526F007069F
:101AD000761B172E4FEAD6070ED83549314A3248C1
:101AE00040F2F31307F055FB324807F052FB2D4844
:101AF00040F2F31107F046FB2560B7FA87F4C4F112
:101B00002008C4F12404A40007340023E408EB6097
:101B1000631CBB42AF600ED92749224A22484FF4CA
:101B2000017307F036FB234807F033FB1D484FF4E1
:101B3000017107F027FB05F1100303EB8808002271
:101B4000984529D1630043F001036B8005EBC40184
:101B50003B1B58002A804880A91925F834404A8048
:101B6000AB5305EBC70321465A8842F001022846D1
:101B70005A80BDE8F04107F082BA042AA1D80F4983
:101B8000084A09484FF4F57307F003FB094807F0CA
:101B900000FB4FF4F57191E743F8042BD0E700BF49
:101BA000BAA80000EEA7000007A10000D0A800001E
:101BB00021A9000008A900004AA90000E7A8000028
:101BC0002DE9F04F91B08B46029092461C460025BD
:101BD0009AF8000008B928465FE325280AF10107B2
:101BE00007D0029B594698470028C0F2568301351A
:101BF00012E2182200210AA807F0B9FB9AF8013076
:101C0000252B78D000221046964694461646394633
:101C100017F8013B2B2B00F09D8000F29480202BC5
:101C200000F09B80232B00F09B802EB19DF830604C
:101C300046F004068DF83060BCF1000F05D09DF829
:101C4000306046F008068DF83060BEF1000F05D018
:101C50009DF8306046F010068DF8306028B19DF890
:101C6000300040F020008DF830002AB19DF830207F
:101C700042F040028DF830209DF8302002F0440000
:101C8000442803D16FF386128DF830209DF8302060
:101C90002A2B42F080028DF830207BD19DF8312034
:101CA00042F001024B1C8DF831201A782E2A9DF843
:101CB00031200CBF0121002161F341028DF8312058
:101CC00074D15A782A2A6AD0013300210A2618468C
:101CD00010F8012BA2F13007092F40F28E809DF8F9
:101CE00030200E91C2F3400040EAD17161F341020D
:101CF0008DF830205AE00AF102078DF833309DF854
:101D00003130D90740F1498154F8049BB9F1000FF3
:101D100007DA9DF8302042F004028DF83020C9F136
:101D200000095A0740F1428154F8048BB8F1000FC2
:101D300080F241819DF831306FF341038DF83130ED
:101D40004FF0FF3837E12D2B0CD0302B7FF46DAFE7
:101D500001225CE74FF0010C59E74FF0010E56E706
:101D6000012054E7012652E70CFB0202303A3346C9
:101D70001E4616F8010BA0F13007092FF4D999423D
:101D800093D09DF830100D92D20F62F341018DF87F
:101D900030108AE70B4600224FF00A0CE8E79DF866
:101DA000312042F004028DF8312002331F4617F82B
:101DB000012B6C2A41D025D8682A2BD06A2A46D01C
:101DC0004C2A4CD01F4617F8012B9DF831308DF866
:101DD0003320782A00F2D980572A4DD8412A03D0DF
:101DE000453A022A00F2D1809DF83230042262F393
:101DF00002038DF8323001239EE006FB01213039C9
:101E0000034664E7742A26D07A2ADBD19DF8313064
:101E100006220DE05A78682A9DF8312006D101216A
:101E200061F3C6028DF831209F1CCCE713460222D5
:101E300062F3C6038DF83130C5E75A786C2A9DF8F5
:101E4000312001D10421EBE713460322F0E79DF88E
:101E500031300522ECE79DF831300722E8E7BDF884
:101E6000303023F4F04323F0020343F4804343F083
:101E70000203ADF83030A6E7A2F15801202900F2A4
:101E8000848001A050F821F04D1F00008B1F00003E
:101E90008B1F00008B1F00008B1F00008B1F00009A
:101EA0008B1F00008B1F00008B1F0000E91D00002E
:101EB0008B1F00004D1F00000D1F0000E91D0000DA
:101EC000E91D0000E91D00008B1F00000D1F000030
:101ED0008B1F00008B1F00008B1F00008B1F00005A
:101EE000551F00004D1F0000711F00008B1F0000D8
:101EF0008B1F0000711F00008B1F00004D1F000092
:101F00008B1F00008B1F00004D1F00009DF832103A
:101F1000012003F0780360F30201402B8DF83210AA
:101F200002BF9DF8301041F001018DF83010632A96
:101F300031D1003B18BF01239DF83020C2F340018E
:101F40000B4363F341028DF83020D8E69DF8321040
:101F50000220DEE79DF8322003F07803A3F1400071
:101F6000032161F3020243428DF832204341E3E74B
:101F70009DF83220032113F0780F61F302028DF8EF
:101F8000322014BF01230023D6E79DF8303043F000
:101F900001038DF830300023CEE79DF93020002A70
:101FA000B4BFDDF834904FF0FF39BAE69B077FF5F8
:101FB000C7AEDDF838809DF831100023CDE90D3330
:101FC0009DF8323003F00703012BC1F3C30138D170
:101FD000CB1E042B22D8DFE803F0030909212100DE
:101FE00054F8043BDA17CDE90A3206E0073424F04E
:101FF0000704F4E80223CDE90A239DF8303013F0FA
:10200000030656D002983B465246594607F0A4F8BC
:102010000028C0F242810544BA46D9E554F8043B91
:1020200001294FEAE372CDE90A3205D19DF8283043
:102030000A9300230B93E0E70229DED1BDF9283093
:10204000D0E7022B23D1CB1E042B13D8DFE803F0FB
:10205000030A0A12120022680A920023201D0B9321
:102060000446CAE7E01D20F00700F0E80223CDE9AE
:102070000A23F5E754F8043B0A9301294FF00003C3
:102080000B93D3D00229B8D1BDF82830D0E7042B68
:1020900009D1E31D23F0070303F10804D3E900236A
:1020A000CDE90A23A9E7032B04BF54F8043B0A93A4
:1020B000A3E79DF833007828AED8622822D82528D7
:1020C0003FF48FAD5828A7D10DF126030093DDE929
:1020D0000A0104AB0CAA06F0F9FF8246B8F1000F22
:1020E0000DF126000CDB9DF83020A0EB0A036FF306
:1020F000861298458DF8302002D9A8EB03030D9382
:1021000080463DE06338152886D801A252F820F0B9
:1021100091210000F5210000192000001920000085
:102120001920000019200000F521000019200000EE
:102130001920000019200000192000004F22000083
:102140001D2200002122000019200000192000009B
:1021500069210000192000001D2200001920000044
:10216000192000001D220000B8F1000FDDF828A0A2
:102170000ADB4146504607F0DAF80AEB0008002671
:10218000BAF1000F0CD147E7504607F0C9F8F4E761
:102190000A9B8DF8103000260DF1100A0DF1110880
:1021A000A8EB0A0306B101339DF83220D00668D5AA
:1021B000023352060D9948BF0E9A0B4448BF9B1834
:1021C000B9F1000F76DD9DF83020A9EB0309C2F3C9
:1021D0008003039353076DD4500661D546B1029B2B
:1021E000594630469847002857DB039B01351E4669
:1021F000302356E01E070FD413F0100618BF202618
:10220000DDE90A23002BBFF65FAF524263EB4303C5
:10221000CDE90A232D2657E72B26F1E7002653E7C1
:102220000A9840B30DF1260300930CAA04AB0021D9
:1022300006F04CFFBDF8323003F0EF0343F4F043F7
:1022400043F010038246ADF83230002646E70A9B81
:1022500007293FF6E1AEDFE801F00C04060C0808A0
:102260000C0C1D70D8E61D80D6E6EA17C3E90052B3
:10227000D2E61D60D0E6DFF8C8A006460AF10508E0
:102280008EE7110748BF013393E718460393594679
:10229000029B98470028039B04DA11B0BDE8F08F39
:1022A00020234D444A46002AA5EB090109F1FF39D4
:1022B000EBDC0D4636B1029B594630469847002864
:1022C000EBDB01359DF83230D90601D41A0706D56B
:1022D000029B5946302098470028DEDB01359DF8E7
:1022E0003230DB0607D59DF83300029B59469847EC
:1022F0000028D2DB01350D9E2E44731B002B16DC0B
:10230000029843465246594606F026FF0028C4DB91
:102310000544A944A9EB0503002B7FF77DAE029B82
:102320005946202098470028B7DB0135F2E7029B89
:102330005946302098470028AFDB0135DDE700BF64
:1023400075A9000008B54FF02002EFF3118382F366
:102350001288BFF36F8F01F039FD034806F01FFEAE
:1023600000F06CFEFCE700BF7BA900002DE9F04700
:1023700006460C4659B9124D124B134FDFF84C90DC
:10238000DFF84CA05B1B4FEA2318444501DBBDE896
:10239000F087284606F00BFF78B14EB94946504603
:1023A00086233A4606F0F5FE8621384606F0EAFE18
:1023B0002B6831461B682846984701341035E4E7FE
:1023C0007C9D00009C9D0000A4A90000DCA90000E9
:1023D00007A10000014B53F820007047F09D00005A
:1023E000054A00231370054A1360054B054A1A601D
:1023F0004FF4004000F08CBAEF0E0020D40500200E
:102400009C000020B591000070B5194B194CE41ADE
:10241000902C0BD918491948194A40F2732306F039
:10242000B8FE174840F2732106F0ACFEBFF35B8F95
:10243000144B53E8006F721C43E800210029F8D1C7
:10244000BFF35B8F1EB92511094CAE4200DB70BD96
:10245000237B53B123689B690BB12046984763687F
:1024600004221968204600F06FF801361034ECE7BA
:102470007C9D00009C9D000034AA000007A1000084
:10248000EFA90000D8050020F8B50C4F3D784DB9F4
:102490000B4C0C4EFFF7B8FF361B3611B54202DB72
:1024A00001233B70F8BD204606F081FE18B1236879
:1024B00020465B69984701351034EFE7EF0E0020A6
:1024C0007C9D00009C9D0000014B01221A7070470A
:1024D000EE0E00200C4BBFF35B8F53E8002F013250
:1024E00043E800210029F8D1BFF35B8F58B1BFF357
:1024F0005B8F064B53E8002F013A43E80021002987
:10250000F8D1BFF35B8F7047D4050020D0050020C1
:10251000054B10B51B68044698470021A060204673
:10252000BDE81040FFF722BF9C000020044A054B85
:102530009B1AB1EBD30F34BF52F831000020704723
:102540002C9D00007C9D000070B503680E4C1B683C
:10255000041B241105460E46013463B90B490C4A8D
:102560000C48BB2306F015FE0B4806F012FE084887
:10257000BB2106F007FE6B6801221C711E605A71B8
:10258000BDE87040FFF7A0BF7C9D0000B4AA00002A
:102590005CAA000007A10000CAAA00000EB403B59F
:1025A00003AB014653F8042B04480193FFF708FBE3
:1025B00002B05DF804EB03B0704700BFE791000084
:1025C0002DE9F04F87B01C4601F0010305929DF8FC
:1025D0004090BDF948A004930746884601F0020BDD
:1025E00001F0080606F0FDFD0246002844D03A49F5
:1025F0003846FFF7D3FF0546BBF1000F08D018F0AF
:10260000440F3BD1354922463846FFF7C7FF054402
:10261000049B53B1324B334953F82920324B38468F
:10262000002A08BF1A46FFF7B9FF3EB12F4B3049C9
:1026300053F829203846FFF7B1FF0646BAF1000FDC
:1026400016DB059B002B45D0012303FA09F9294B22
:10265000294C19F0100F18BF1C4651469DF8440034
:10266000FFF764FF214602463846FFF797FF06440E
:10267000701907B0BDE8F08F0546BDE71F4B18681D
:102680000028C4D01E4B4FF47A781B68B4FBF3F4D7
:102690004FF46161B4FBF0F300FB134408FB04F456
:1026A0004FF03C0CB3FBF1F201FB1231B4FBF0FE36
:1026B000B1FBFCF300FB1E440CFB131108FB04F4FC
:1026C0000091B4FBF0F00F49CDE901E03846FFF787
:1026D00065FF9CE7084CC0E7FAAA0000FEAA0000CC
:1026E000FC9D000023AB0000ECAA0000109E00003F
:1026F00026AB0000F6AA0000F1AA0000DC050020CD
:10270000E005002007AB00002DE9F0471D46089BBF
:102710001746DA0604460E4605D499064CBF2A49E8
:102720002A49FFF73BFFDFF8A8904FF00008A845C3
:102730002ADBDFF8A080DFF8A090DFF894A0002566
:10274000BD422FD2725D49462046FFF727FF013573
:10275000102D20D12149DFF87880DFF884902046C1
:10276000FFF71CFF0025AF4228D9725DA2F12003BC
:102770005F2B28BF2E2249462046FFF70FFF013569
:10278000102D14D1BDE8F08749462046FFF706FF1B
:1027900008F10108CBE76A07D2D151462046FFF77E
:1027A000FDFECDE741462046FFF7F8FECFE76B0779
:1027B000D9D141462046FFF7F1FED4E741462046F5
:1027C000FFF7ECFEDBE700BF0FBC00002CAB000006
:1027D00037AB000035AB00002FAB000039AB000079
:1027E0003BAB000038B50C46E107054603D5084A67
:1027F0000849FFF7D3FEE20608D4A30628464CBFDB
:1028000005490649BDE83840FFF7C8BE38BD00BFDE
:10281000ECAA000023AB00000FBC00002CAB0000B2
:102820002DE9FF470B8813F4E07F06460C469046DF
:10283000C3F382195BD00A784B68C2F3C202002B43
:1028400052D02C495B1A43F3CF03CDE90123CDF8D5
:102850000090A368002241463046FFF7B1FE824651
:10286000254655F8103BC3F34923C3B1224F2348F3
:102870002349B9F1000F08BF38462B46324606F00F
:102880004CFB00280BDA1F491F48204A40F2B723AF
:1028900006F07FFC1D4840F2B72106F073FC678804
:1028A000C7F3CB0797B12168C1F349210D44102F1D
:1028B0003C4628BF10242946CDF8008053462246C6
:1028C0003046FFF721FF3F1B2544F0D1B9F1000F3F
:1028D00004D04A4641463046FFF784FF304604B0F4
:1028E000BDE8F04706F0A7BC4FF0FF33ADE7CA469E
:1028F000B6E700BF2C9D000003920000E7910000A6
:10290000C11B00007AAB000007A100003EAB000035
:10291000084A10B50123084C13600021A04204D8D6
:1029200001B11360054B186010BD40085B00012128
:10293000F4E700BFE005002040420F00DC05002066
:102940002DE9F04F85B002AFD7E90DB805468946AD
:1029500014469A46B8F1000F4ED0FB6B7B60009393
:102960005A46434610210020FEF73CFB061E09DABA
:1029700022492348234A672306F00BFC214867219C
:1029800006F000FC04F0070205F00704E4001E4D09
:102990001E4B44EA82143A6B05EA46252C4303EAAF
:1029A000C2431C4313461733334423F00703ADEBF4
:1029B000030D02ADB8F1000F14D0FB6B00935A4623
:1029C0004346314605F11000FEF70CFB002809DAFA
:1029D0000A490B480B4A812306F0DBFB0948812199
:1029E00006F0D0FB534622464946284606F030FC06
:1029F0000C37BD46BDE8F08F4646C3E7D0AB0000BC
:102A000007A10000A3AB000000FE07000000F87F54
:102A1000F8B5074F0D4604464618B44201D1284682
:102A2000F8BD386814F8011B83685B689847F4E7C1
:102A3000FC050020014B002019607047EC050020C8
:102A4000024B034801221A7006F0F5BBF00E00207D
:102A5000449E0000064B10B518680C46FFF7BAFC00
:102A600021460346BDE8104002480F22184700BF28
:102A7000EC050020449E000008B5094B0948186089
:102A800006F05AFF58B908490848094A792306F060
:102A900080FBBDE808400648792106F073BB08BDFD
:102AA000FC0500207C9B00000FAC000007A100008B
:102AB000DAAB0000014B01221A707047F30E0020C0
:102AC000014B00201960704708060020024B0348A4
:102AD00001221A7006F0AFBBF40E0020749E0000B5
:102AE000064B10B518680C46FFF774FC21460346E8
:102AF000BDE8104002480F22184700BF080600201A
:102B0000749E0000F8B5194D07460E46042432465F
:102B10003946002003F00EFBC8B101232B70144B83
:102B20001B782BB93046F8BD5CB92C704FF0FF34E0
:102B3000002003F04BFB0028F4D02B78002BF3D1BE
:102B4000F0E7013C41F2883006F07CFFF0E72B789B
:102B500013B1013C04D12C702B78002BD7D1E1E7C5
:102B600041F2883006F06EFFF6E700BFF30E00205A
:102B7000F40E00202DE9F84305464FF02003EFF353
:102B8000118683F31288BFF36F8F224803F0FEFE95
:102B900068B9214A214922488E2306F0FAFA1D49D4
:102BA000204806F0F6FA1C488E2106F0EBFA194888
:102BB00003F00AFF1C4B1C689CB11C4FDFF87080AF
:102BC0004FF00C09D4E90132002D08BF13462BB198
:102BD00098F8142009FB02F2B85C98472468002C8E
:102BE000F0D10C4803F0E0FE68B90B4A11490C48DB
:102BF000B92306F0CEFA07490F4806F0CAFA06488C
:102C0000B92106F0BFFA86F31188BFF36F8FBDE8D4
:102C1000F88300BF1806002068A70000C1A70000C5
:102C200007A10000D6A700001C06002024060020F3
:102C3000C80C002095A70000ACA7000042090123A2
:102C400000F01F0003FA00F0074BBFF35B8FC04397
:102C500003EB820353E8002F024043E800210029E0
:102C6000F8D1BFF35B8F70473006002038B51A4BA0
:102C70001C7DBFF35B8F04F01F0301229A40174BAA
:102C80006109D04303EB810353E8001F01EA00050B
:102C900043E8005CBCF1000FF6D1BFF35B8F11423B
:102CA00013D00F4B0F4D8BB10C236343EA18E85C34
:102CB000517806F074FB0020FFF75CFF0C235C43A7
:102CC0002A1900232B51C2E9013338BD83F311883F
:102CD000BFF36F8FEFE700BFC80C00203406002061
:102CE0009F930000240600202DE9F843324B334A1D
:102CF0001C7DBFF35B8F63094FEA830952F82330D1
:102D00002F4EBFF35B8F04F01F0843FA08F313F054
:102D1000010F07460AD10146204600F069F828B1A4
:102D200007C80C2303FB046383E807000C236343F9
:102D3000F218F55C2DB92046FFF780FF2846BDE864
:102D4000F8837B1C0FD0D2F808C01E481E4A4FF4EF
:102D5000004500210023ECFB0501FDF7B3FB012139
:102D6000381A05F057FC04F0F5F90120FFF702FFCF
:102D7000BFF35B8F012303FA08F8144B994459E819
:102D8000003F43EA080349E80032002AF7D1BFF3C5
:102D90005B8F0F4B33B10C236343F218F05C517817
:102DA00006F0F1FAFFF762FF2046FFF747FF04F055
:102DB0000FFF0120C3E700BFC80C00203006002031
:102DC000240600203F420F0040420F00340600203E
:102DD00087930000054BBFF35B8F53F82000BFF3D0
:102DE0005B8F003818BF0120704700BF38060020F5
:102DF0002DE9F04F85B00F4603A900F047F8DFF842
:102E00008080DFF880A0441E24B24FF0000B631CCA
:102E100004D10026304605B0BDE8F08F039A04EBDC
:102E2000440302EB830612F82300FFF7D3FF0546A5
:102E300010BB70684FF40049C4462946E0FB09C145
:102E400052465B466046FDF73DFB0190B068C446C4
:102E50002946E0FB09C15B4652466046FDF732FB5E
:102E6000094B1B68591C01D0834205D97A1CD1D06B
:102E7000019B1844B842CDD9013C24B2C7E700BF3A
:102E80003F420F0040420F00A000002008B9024B53
:102E90000B600020704700BF849E0000014805F0D1
:102EA0009FBE00BF849E000010B5044618B90D4BAC
:102EB0000D485B689847616808290DD031F004031C
:102EC0000AD011F0020108D00848214603F0BEFBE9
:102ED000002323600023636010BD2068142206F0E5
:102EE00046FAF7E77C01002056AC000054060020AB
:102EF00008B508B34368042B10D101220368BFF35F
:102F00005B8F53E8001F002903D143E8002000280D
:102F1000F7D1BFF35B8F0BD1002008BD53B1006820
:102F20004FF0FF324FF0FF3303F088FD0028F3D05D
:102F30000348F2E70348F0E76FF4E040EDE700BF35
:102F4000E98FFFFFEA8FFFFF08B5D0B14368042B7C
:102F500011D100220368BFF35B8F53E8001F0129E2
:102F600003D143E800200028F7D1BFF35B8F074867
:102F700008BF104608BD3BB1006803F059FE0020B1
:102F8000F8E76FF4E040F5E70148F3E7E98FFFFF6A
:102F9000EA8FFFFF10B5044618B9164B16485B6858
:102FA00098476368042B23D0082B21D0CBB9236822
:102FB000BBB912484FF0FF324FF0FF33214603F008
:102FC000D9FA08B923681BB90A4B0D485B689847C2
:102FD00020681422002106F0CAF9636843F0020356
:102FE0006360206806F0F9FC636843F001036360E6
:102FF00010BD00BF7C01002056AC0000540600202C
:103000007CAC000008B5064906484023142206F0AF
:10301000B1FCBDE808400449044805F041BE00BFCA
:1030200074060020540600209C9E00008C9E000028
:10303000014910220A60704710ED00E072B640406E
:1030400080F31188BFF36F8FBFF34F8F30BF62B62D
:10305000BFF36F8F704700BF72B6494081F311888C
:1030600020BF80F3118862B6704700BF70B5064676
:1030700086B00D46002938D08B6805934B680493C1
:103080000B68039300241C4B1C4902930122234626
:103090002046CDE9004406F0FAF86B6905932B69E8
:1030A0000493EB680393164B14490094CDE9014354
:1030B00001222346204606F0EAF8EB690393114B00
:1030C0000E490094CDE9014301222346204606F033
:1030D000DEF8AB6903930C4B08490094CDE901433A
:1030E00001222346204606F0D2F82946304606B093
:1030F000BDE8704003F0BEB8A9AC00005C9D0000C4
:10310000D8AC000007AD000016AD000043B2002BA4
:1031100008DB012200F01F0002FA00F05B09024AFE
:1031200042F82300704700BF00E100E0054B420970
:1031300000F01F0053F82220012303FA00F0104092
:10314000704700BF00E100E070B54C1C072C05463D
:103150000E460FD9114A12491248572306F019F8A2
:103160001148314607232A4606F013F80B48572129
:1031700006F008F86BB2002BACBF03F160430B4BB9
:103180004FEA4414B8BF05F00F05E4B2AABF03F537
:1031900061435C5583F8004370BD00BF44AD00003F
:1031A0007AAD000007A1000095AD000014ED00E02D
:1031B00030BFFFF7FDBF00BF0B4A08B50B4B22F035
:1031C0007F029A60BFF34F8FBFF36F8FD3F88820D1
:1031D00022F47002C3F8882003F0E0F805F058F8F4
:1031E00000F0E6FB03F01EF90000000000ED00E037
:1031F000094A0A49936809689967094958674B68F9
:1032000043F080534B60002383F31188BFF36F8F2B
:103210009368986F704700BFC80C0020F09F0000B3
:1032200000ED00E012498A684FF030001044EFF3DF
:10323000098C80E8F01F202080F31288BFF36F8F85
:103240000C4F4FF00066CA698A603E60506F0023E1
:10325000536780F3118804B5104600F045FCBDE8C3
:10326000044002F1300090E8F01F8CF309887047A9
:10327000C80C002004ED00E01EF0040F0CBFEFF3BB
:103280000880EFF30980816911F8021C0229FFD040
:1032900001B506F00CF801BD42F8203C009B42F855
:1032A0001C3C0A49019B42F8183C029B42F8143C22
:1032B00021F001014FF0807342F8043C42F8081CF1
:1032C0000023203A02654367704700BF6190000009
:1032D000094A0346906870B113F1160F406E05D08D
:1032E000A0F120029A4205D8834203D2814228BF2E
:1032F0000020704700207047C80C002008B5094B1B
:1033000098600D46144600F0EFFB204685F30988CF
:10331000002163B681F31188BFF36F8F0022002371
:1033200005F09EFEC80C002001B572B60B4A9069EC
:1033300000281EBF0021916106F040FB62B6EFF34A
:103340000580A0F110004FEAC0000549014409C9F9
:103350009847BDE80140034908470000C80C002019
:10336000AC9B000069330000044B9968D86988421F
:1033700003D003494FF080520A607047C80C002008
:1033800004ED00E0F0B585B000243B4B0293CDE99D
:103390000044234607460E4601223849204605F0E0
:1033A00095FF374B9B6ADB0409D5364B33490094B4
:1033B000CDE9014301222346204605F087FF304B2B
:1033C0009B6A1D0509D5304B02930023CDE90033DC
:1033D0002A490122184605F079FF294DAB6A9C0560
:1033E0001ED50024294B0293012223462046CDE915
:1033F0000044224905F06AFFAB6BAA6A10040FD59E
:103400000393234B1D490094CDE901430122234638
:10341000204605F05BFF1FB1AB6A23F40043AB62AB
:10342000174B9B6A590509D51A4B02930023CDE926
:10343000003312490122184605F048FF104A936AEA
:1034400013F4807312D0144B02930023CDE90033A0
:103450000A490122184605F039FF094A936A0020FB
:1034600043F47F439362307005B0F0BD926A9204DA
:10347000F3D50A4A0292E9E7D5AD00005C9D000051
:1034800000ED00E0EBAD0000FCAD00000FAE000071
:1034900028AE00003DAE000058AE000070AE000047
:1034A0001FB50024334B0293CDE900442346324933
:1034B0000122204605F00AFF304B9B6A9B0109D58B
:1034C0002F4B2D490094CDE901430122234620468C
:1034D00005F0FCFE294B9B6ADC0109D5294B0293C0
:1034E0000023CDE9003324490122184605F0EEFE01
:1034F000224B9B6A180309D5234B02930023CDE985
:1035000000331D490122184605F0E0FE1B4B9B6A63
:10351000590309D51D4B02930023CDE90033164909
:103520000122184605F0D2FE144B9B6A9A0309D576
:10353000174B02930023CDE900330F4901221846AF
:1035400005F0C4FE0D4B9B6ADB0309D5114B0293BA
:103550000023CDE9003308490122184605F0B6FEE4
:10356000064A936A6FEA03436FEA134300209362AB
:1035700004B010BD9FAE00005C9D000000ED00E0B7
:10358000B7AE0000CAAE0000E4AE000002AF00001B
:1035900027AF000041AF00002DE9F04385B00024C3
:1035A000534B0293CDE90044234680468946164694
:1035B00050490122204605F089FE4F4B9B6ADF06E9
:1035C00009D54E4B4B490094CDE9014301222346D6
:1035D000204605F07BFE484B9B6A1D0709D5484BEA
:1035E00002930023CDE9003342490122184605F039
:1035F0006DFE414DAB6A9C0737D46FF015073E4B0B
:103600009B6AD90709D53F4B02930023CDE90033CC
:1036100038490122184605F059FE374B9B6A9A0635
:1036200009D5394B02930023CDE9003331490122FA
:10363000184605F04BFE304DAB6ADB0637D4AB6A5B
:103640009C0734D400242C4B9A6A920642BF5A6AD3
:1036500022F400525A629A6A42F0FF029A622046AD
:103660000023337005B0BDE8F0830024274B02939C
:1036700020462346CDE900441E49012205F026FEDE
:103680006F6BAB6A1806B8D5214B1A490397CDE981
:103690000143009423460122204605F017FEB9F1AC
:1036A000000FACD0AB6A23F08003AB62A7E76B6876
:1036B0001805C7D541463846FFF70AFE044618B13B
:1036C00080F309880224BEE7AB6AD906BAD5114A4D
:1036D0001149124840F2491305F05BFD104805F00E
:1036E00058FD0C4840F2491105F04CFDABE700BF16
:1036F0006CAF00005C9D000000ED00E082AF0000B8
:10370000FCAD0000E3AF000070AE0000B5AF0000FC
:10371000CDAF000002B000003CB0000007A10000E7
:1037200086B000002DE9F043854BD3F8049091B0AA
:103730008846C9F30806002787F31188BFF36F8F07
:1037400002F07F43B3F17F4F0DD102F00C03082B41
:103750001BD17C4B7C490097CDE9017301223B468C
:10376000384605F0B3FD794A79497A4840F2FB338F
:1037700005F00FFD784805F00CFD744840F2FB3170
:1037800005F000FD4FF0000806E012075CBF804620
:103790000127B8F1000FE6D00025F31E8DF81F5069
:1037A000092B00F2B380DFE803F005A7AB87B1B1C6
:1037B000B1B1B1AF694B624E63490095CDE9015398
:1037C00000230122184605F081FDF46A8DF81F5090
:1037D00014F002040BD0624B5B490095CDE9015314
:1037E00000230122184605F071FD00240CE0F36A65
:1037F000002B25DA5B4B54490094CDE901430122AB
:103800002346204605F062FD9DF81F30ABB920220B
:1038100041460DEB020005F09FFD0F9B002F00F0CD
:103820008A80C3F3080222B96FEA53236FEA432365
:103830000F9308A92046FFF719FC11B0BDE8F083EB
:10384000F36A5B004BD5484B3F490094CDE90143F7
:1038500001222346204605F039FDD8F8183033F808
:10386000022C4DF602739A420FD1D8F80030039320
:103870003E4B0094CDE901432046234632490122C4
:1038800005F024FDD8F80040BEE796F828303BB19B
:103890000DF11F0201214046FFF77EFE0446B3E70B
:1038A00096F829302BB10DF11F010120FFF76AFDB9
:1038B000F4E7738D9BB213B1FFF7F2FDEEE72C49ED
:1038C000224A244840F2CD2305F063FC294805F044
:1038D00060FC40F2CD211D4805F054FC94E72449DA
:1038E0001A4A1C4840F2D12305F053FC224805F047
:1038F00050FC40F2D121EEE70DF11F020021CAE792
:103900000DF11F010020D1E71C4B65E71C4A1D4B40
:103910000D4919F4F87F18BF1346103E0024CDE975
:103920000336194B0293CDE9004423460122204679
:1039300005F0CCFC68E723F4FF7323F0010377E77D
:1039400000ED00E0D7B000005C9D000002B0000078
:1039500002B1000007A1000015B1000053B1000042
:103960006AB100008BB1000099B10000B8B100004D
:10397000AAA20000D4B10000F8B1000028B20000F3
:10398000BEB00000A9B000004CB20000024A53696A
:1039900043F010035361704700ED00E0EFF308803F
:1039A000EFF3098101B57246FFF7BCFE01BD00BF10
:1039B000044800232021C2180133302B82F8001361
:1039C000F9D1704700E100E0002080F31488BFF3D4
:1039D0006F8F06F061F800200D490860BFF34F8F2C
:1039E0000C4880F3088800F02BF8202080F3118821
:1039F00009484FF40261401880F30988EFF31480FE
:103A00000221084380F31488BFF36F8FFFF7D4FBC4
:103A100094ED00E0A0270020202900200749D1F8DC
:103A200090200023C2F307221846934200D170472A
:103A3000C1F89830C1F8A0000133F6E700ED00E0CE
:103A400008B572B6002383F31388FFF7E7FF144B22
:103A50004FF0FF32C3F88020C3F88420C3F88820D9
:103A6000C3F88C20C3F89020C3F89420C3F89820A2
:103A7000C3F89C20C3F88021C3F88421C3F88821AF
:103A8000C3F88C21C3F89021C3F89421C3F898217E
:103A9000C3F89C2162B6BFF34F8FBFF36F8F08BD91
:103AA00000E100E0084B9B6883420BD1EFF30583F4
:103AB00043B1064B5A6842F080525A605A6A22F467
:103AC00000425A6204F030BBC80C002000ED00E058
:103AD000024B034A0348012100F084B8000004208F
:103AE00000000020B09E0000426E054B203A1A6094
:103AF000044A2021C3E901121846012100F09AB8B6
:103B0000740B002000000B15F0B5274F85B0002680
:103B10008E4215DA4468002C43D0D3B104F1FF3C47
:103B200014EA0C0F0FD0214B0396029300230122BD
:103B3000CDE900331E49184605F0D8FB6FF0150299
:103B4000104605B0F0BD1F2CEDD905681CEA050F25
:103B5000E9D1202C0568D0F808C0D2B20FD9B4F151
:103B6000004F0ED8013CB4FA84F4C4F11F04640081
:103B7000072A4CEA040406D90E4B0392D5E7082421
:103B8000F6E73E24F4E725F01F05154345F0100540
:103B900044F00104C7F89820C7F89C500132C7F8D8
:103BA000A04001360C30B3E700ED00E063B2000046
:103BB000549D000086B20000044B0522C3F89420F7
:103BC000BFF34F8FBFF36F8F704700BF00ED00E072
:103BD000BFF35F8F024B0022C3F89420704700BFF1
:103BE00000ED00E038B50E4D01232A780C46FFF7B2
:103BF0008BFF2870163011D140F21113094A0A497F
:103C00000A4805F0C6FA2146094805F0C2FABDE89F
:103C10003840044840F2111105F0B4BA38BD00BF75
:103C2000F50E0020ACB20000AAA2000007A100001F
:103C3000E3B2000010B5134A002312780C46FFF7D8
:103C400063FF10F1160F0AD00F4B0022072800DD8A
:103C500010BDC3F89800C3F8A0200130F6E70B4A66
:103C60000B490C484FF4987305F093FA21460A4823
:103C700005F08FFABDE8104004484FF4987105F044
:103C800081BA00BFF50E002000ED00E0ACB20000EC
:103C9000AAA2000007A100000FB30000274910B539
:103CA0000C68082C13D94FF4A473254A25492648DB
:103CB00005F06FFA25480822214605F06AFA2048E7
:103CC0004FF4A47105F05EFA4FF0FF3010BDFFF71E
:103CD0007FFF48681E490022944200F10C001AD16F
:103CE0001C4B1C70FFF768FFD1F89030C3F307231B
:103CF000082B0ED01849124A13484FF4D47305F01C
:103D000048FA164805F045FA0D484FF4D47105F00D
:103D100039FA0020DAE7C1F8982050F80C3C23F07B
:103D20001F03134343F01003C1F89C3050F8043CC8
:103D300043F00103C1F8A0300132CDE7BC9E000082
:103D4000ACB20000AAA2000007A100003CB3000032
:103D500000ED00E0F50E002070B30000C0B30000DD
:103D6000014B1860704700BFC400002010B54FF031
:103D70002003EFF3118083F31288BFF36F8F114A92
:103D80000123C2F840354FF080424FF08051C2F815
:103D90007835D1F83041082C08D1D1F834110529F3
:103DA00004D8094C615C09B1C2F838364FF0804341
:103DB0000122C3F8802580F31188BFF36F8F0020A4
:103DC00010BD00BF00E00140F4B300004FF080439D
:103DD000C0B2C3F81C05BFF34F8F0549054BCA6835
:103DE00002F4E0621343CB60BFF34F8F00BFFDE7E7
:103DF00000ED00E00400FA0520B1034B800143F020
:103E000001031847704700BFC09D00007FB50D79C2
:103E100005F01F04072C1AD80A78092A1ED8DFE8F3
:103E200002F006060606061D05191D1B05224B7825
:103E3000032B17D0042B4FF0000325D0304A0292F9
:103E4000CDE900332F490122184605F0AEFA6FF094
:103E500015004AE00622EAE70722E8E72A4B029328
:103E60000023EDE70126488844F20A03984240D037
:103E70000CD844F20303984216D044F2050398424A
:103E800035D0B0B3214BEAE71E46ECE744F2140309
:103E9000984230D044F2280398422ED044F20F03C7
:103EA0009842EFD1032000E000201202C5F3401336
:103EB00042EA0353220102F1804202F5E04243EA62
:103EC000063343EA0043C2F81835230103F1804367
:103ED00003F5E0438A79C3F814250020C3F81005E0
:103EE0000B4B1C444B7984F8903004B070BD01201A
:103EF000DBE70220D9E70420D7E70520D5E700BF9C
:103F000019B400002C9D0000FAB300003DB400007D
:103F100000000020044B0122C3F8002508B1DA603C
:103F200070471A605A60704700700040F0B50D4647
:103F300087B070484FF0FF324FF0FF3302F07AFF46
:103F40006C6814B134F0FF020AD06B4B029300236B
:103F5000CDE9003369490122184605F026FA53E0FD
:103F6000674E684F114624FA02F313F001032FD075
:103F7000BB1893F890302BB90392634A0292CDE9B3
:103F800000333CE006EB021E95F811C0DEF8180580
:103F9000BCF1000C18BF4FF0010C20F0807040EA1B
:103FA0000C60CEF8180502F15100000101313350C8
:103FB000C9B20132082AD6D12A7CA2F10800002316
:103FC000062816D8DFE800F0281509152A15130071
:103FD00002F1510000013350EBE70123484A012967
:103FE000C2F8F0356B7C1BD9E3B1484BAEE7032335
:103FF000F4E70392464A0093CDE9013200233F499A
:104000000122184605F0D1F96FF01504394802F085
:10401000D3FE204607B0F0BD0023DFE70223DDE733
:10402000082B16D8C2F8F4352A684B00B2B9EA68F2
:104030009A4217D2CDE90323364B02930023CDE9F0
:1040400000332E490122184605F0AFF96FF00B043A
:10405000DCE70393304B0293002390E7928902FB45
:104060000333E4E7264BAA68C3F82C262F46C3F88F
:1040700030160FCF234C04F164060FC63B68336043
:104080002B6800262666274673B30FCB04F178050C
:1040900085E80F006566A4F8886028B3BFF35B8FDE
:1040A00057E8003F47E80062002AF9D1BFF35B8F71
:1040B0001A48A76F1A4A4FF4004531460023E7FB20
:1040C0000501FCF7FFF90022CDE90001002304F10E
:1040D000080004F0AFFC13484FF0FF324FF0FF33FD
:1040E00002F0A8FE246E91E794F87600FFF712FF25
:1040F000F1E700BF4000002068B400002C9D0000E4
:10410000007000400000002086B40000C5B400002C
:10411000A0B400001AB50000F7B400003F420F0041
:1041200040420F00500000200E4B10B50024C3F891
:104130000441D3F80421C3F81041D3F8102112220E
:10414000C3F804230720FEF7E1FF224601210720E0
:10415000FEF7FAFF0448836C13B9403002F02CFEDE
:10416000002010BD007000400000002038B52E4B2C
:10417000D3F80421002A4AD00022C3F804212B4C92
:10418000D3F8041101219960C3F80025636E254618
:10419000C3B3E36F43B1B4F8882004F164019847D6
:1041A000012814D0022828D0B4F88830B4F884202C
:1041B0009A4222D90133A4F888301B4BD3F82C261D
:1041C000D3F8341689B202EB4102C3F82C26A36F50
:1041D0002BB994F87600BDE83840FFF79BBEBFF3DB
:1041E0005B8F55E8003F5A1E45E800210029F8D1B1
:1041F000BFF35B8F012BECDC38BDA36F13B10C4810
:1042000005F024FC0B48BDE8384002F0D5BDD3F8DA
:1042100010110029F0D0C3F81021D3F81021012289
:104220009A601A605A60E7E70070004000000020C2
:10423000080000205000002037B50C460A490B4A00
:10424000411A40230093491105462346084805F0CA
:10425000E6F8011E05DA2846234603B0BDE83040E3
:10426000184703B030BD00BF900B00208D940000B4
:104270001C9B000038B5CCB2012C054609D9094970
:1042800009480A4A792304F084FF0848792104F098
:1042900079FF29690C2304FB0314A06C00F00700CC
:1042A00038BD00BF8BB5000007A100004EB500006F
:1042B000F8B5CCB2012C0669054617460BD9194949
:1042C00019481A4A40F24D1304F063FF174840F2B0
:1042D0004D1104F057FF4FF02003EFF3118183F3EA
:1042E0001288BFF36F8F0C2202FB04639B6C13F0E8
:1042F000C00301D09F4211D102FB04660123B364C5
:10430000002081F31188BFF36F8F30B969680C23E7
:1043100003FB0414636898470020F8BD4FF0FF309A
:10432000EFE700BF8BB5000007A100004EB500000D
:1043300070B50D460649411A044649110548402208
:10434000FFF7B6FF2B4601462046BDE870401847F0
:10435000900B00201C9B0000002270B50121044638
:104360001046FEF7F1FE0F4801F0B4F90E4B9842EB
:1043700015D101F0D5F926690C49304604F05DFEEF
:1043800000280BDB246909490125B56404F12000EC
:1043900004F053FE002801DB6565002070BD6FF05E
:1043A0000400FBE7E54300000000AD0B189F000090
:1043B00001460C2309484B4370B5C418D4E9105684
:1043C000002248332264184405F016F82DB1324615
:1043D0002B460348BDE87040184770BD900B002085
:1043E0001C9B0000012808B506D0032808D0A8B9F6
:1043F000104B9B6C5B071BD1BDE80840FFF7D8BF93
:104400000D490E4A0E4840F25E2304F0C2FE40F20F
:104410005E21BDE80840094804F0B4BE0649074AD9
:10442000074840F2622304F0B4FE40F26221F0E754
:1044300008BD00BF900B0020AAA200004EB50000EE
:1044400007A1000008B54FF02003EFF3118183F3BB
:104450001288BFF36F8F124A136843F0020013F003
:10446000010310600CD04FF08042D2F80C34D2F827
:104470000C2413F0010303D00A4804F0BDFF01230C
:1044800081F31188BFF36F8F23B1BDE8084000208E
:10449000FFF78EBFBDE80840012001F065B900BFFD
:1044A000E80B0020D80B00201FB500220123CDE926
:1044B0000223094ACDF800D06B46CDF804D004F0B1
:1044C000DEFF002805DB4FF480420023684602F03F
:1044D000B1FC05B05DF804FBAB940000094BBFF3E1
:1044E0005B8F53E8002F22F0020143E80010002800
:1044F000F7D1BFF35B8FD30702D4012001F098B945
:10450000704700BFE80B00202DE9F0414749BFF399
:104510005B8F0646012251E8003F41E80020002859
:10452000F9D1BFF35B8FA3B9414942484B60CB60DF
:104530008A60FDF717FA00280BDA3F493F48404AE6
:104540004FF4087304F025FE3D484FF4087104F061
:1045500019FE96B3731E012B53D8012E07D14FF0CD
:104560008043D3F81C3403F00303012B25D005F05E
:104570001DFA044618B9334B1B78002B4FD14FF06E
:104580002003EFF3118783F31288BFF36F8F0124A9
:10459000DFF8B4804FF08045D5F81834D5F81824EA
:1045A000D2030CD503F00303012B01D0012E06D159
:1045B0000CB387F31188BFF36F8FBDE8F081ACB106
:1045C0003846FEF749FDD5F81835002BE4D1D5F86B
:1045D0000421002AE0D0C5F80431D5F804310123C4
:1045E000C5F81835C8F88031AB60D5E70021212027
:1045F00003F05CFDE7E74FF080430222C3F8042399
:10460000DBE712490D480E4A40F2322304F0C1FDA7
:10461000BDE8F0410A4840F2322104F0B3BD4FF04A
:1046200080430222C3F808230746B1E7EC0B0020C1
:10463000800B0020B00B00207AAB000007A1000027
:104640004EB500000613002000E100E0AAA2000021
:1046500008B5084B0848186005F06EF938B10748EE
:10466000FFF77EFB0548FCF757FF002008BD6FF001
:104670001200FBE7F00B00207C9B0000814600004D
:104680000A2838B5074D044604D1286883680D21EF
:104690005B68984728688368E1B25B689847204662
:1046A00038BD00BFF00B002070B5056916460C46FA
:1046B00061B92249224A2348242304F06AFD224892
:1046C00004F067FD1E48242104F05CFD636863B9B3
:1046D0001E491B4A1B48252304F05BFD1C4804F0BF
:1046E00058FD1748252104F04DFD6B685BB1002291
:1046F0009C4212D12368A96852B9A1426B6000D1D3
:10470000AB60002323606EB9002070BD0B46EFE75D
:10471000A142136008BFAA60F3E719681A4600298E
:10472000F4D13EB1A8686B6823606C600028EBD1BF
:10473000AC60EAE76FF01500E7E700BFFCB50000EA
:10474000CFB5000007A1000005B6000014B60000B8
:1047500026B600007FB54068057B01F01F04B2F566
:10476000001F44EA45144FF0000504D1204601F033
:1047700085FB002054E0B2F5800FCDE9025551D100
:10478000B3F1007F0CBF042305238DF80830836844
:1047900023FA01F111F0010155D1B2F1A07F52D1FC
:1047A00066094AD04FF6FF73012E08BF194604F080
:1047B0001F05E940CA070BD42B492C482C4A40F26C
:1047C000292304F0E6FC2A4840F2292104F0DAFC0F
:1047D0006EB1012E34D027492448254A40F22E23B9
:1047E00004F0D7FC224840F22E2104F0CBFC4FF01D
:1047F000A04305F5E07553F82530DB0723D40DF110
:1048000007052946204601F05DFA1B4B984219D155
:10481000284601F0B9FA194B984213D06FF00B00FB
:1048200004B070BDB3F1C06F05D0B3F1007F0CBF11
:1048300002230123A9E70323A7E74FF0FF31B6E7DF
:104840000F4BD6E703950023194602AA204601F034
:1048500011F90A4B984204D10121204601F09AFA3D
:1048600087E76FF00400DBE770B6000007A10000E7
:104870003DB60000AAA200000400AD0B0000AD0B85
:104880000003005010B501F06FFA044668B901F05A
:1048900043FA084B98420AD10748214601F00CFA26
:1048A000224605210620FEF74FFC002010BD6FF0C8
:1048B0000400FBE70000AD0BBD48000043092DE9F3
:1048C000F04703D0012B2ED0BDE8F087174F3B698E
:1048D0005C68002CF8D000F01F0001262568DFF886
:1048E0005080DFF85090DFF850A08640A3681E4249
:1048F00014D0636863B9494645234246504604F0E4
:1049000048FC0E4804F045FC4521404604F03AFCC2
:10491000D4E901322146324038469847002DD3D0A1
:104920002C462D68E2E7064FD1E700BF349B00001C
:10493000CFB5000093B6000007A1000026B6000026
:104940004C9B00002DE9F04347683B7B01F01F05BD
:1049500085B00E4645EA43151446CAB902A9284651
:1049600001F0B0F90446284601F0B2FA4A4B9842E9
:1049700004D06FF0040005B0BDE8F083844205D197
:104980009DF8080001F0FAF9A042F2D10020F2E708
:104990004FF000090DF103013046CDE9029901F015
:1049A00091F94B46804602AA4946284601F062F832
:1049B000394B984202D06FF01500DCE7804503D1F7
:1049C0009DF8030001F0DAF9A30351D540F2066324
:1049D000234040F2062293423BD00CD8062B15D040
:1049E00004D89BB1022BE6D104230FE0B3F5007F7E
:1049F000E1D101230AE040F2024293422BD0B3F509
:104A0000C06F2AD0B3F5806FD5D102238DF8043062
:104A100084F48033C3F30043E0068DF8053054BFBF
:104A2000C4F34013032321038DF8063017D57B68A8
:104A3000012101FA06F6C3F80865002201A92846FB
:104A400001F0C6F8144B984214BF6FF01500002017
:104A500091E70723DAE70523D8E70323D6E76203C4
:104A600041BF7B68012101FA06F6C3F80C65E4E753
:104A7000E3064FF0000354BFC4F3401403241A4666
:104A800001A928468DF8044000F0F4FF024B98423B
:104A90003FF47CAF8FE700BF0000AD0B7FB50BABE1
:104AA00005930393054B02930023CDE900330122C4
:104AB0001846FDF745FF07B05DF804FBADB60000F2
:104AC000F0B54B79012B26D0032B21D110268B7901
:104AD000032B1DD1CC790CB1012C19D10A7912B15B
:104AE000022A15D10E220B684568B3F5164F2D68C2
:104AF00065D02DD8B3F5165F64D016D8B3F5966F90
:104B000062D00AD8B3F5967F61D0B3F5167F61D035
:104B10006FF0850052E00026D9E7B3F5166F5CD040
:104B2000B3F5965FF4D1374B3CE0B3F5E14F57D086
:104B300007D8B3F5615F55D0B3F5964FE8D1324B46
:104B400030E047F61227BB42E2D14FF4000329E0E0
:104B5000B3F5613F48D013D8B3F5963F47D009D895
:104B60004DF6C027BB4244D0B3F5614FD0D14FF4CE
:104B70006B0317E0B3F5E13FCAD14FF0EB7311E0DF
:104B8000B3F5612F38D008D8204FBB4237D0B3F5EA
:104B9000E12FBDD14FF0E86304E01D4FBB42B7D118
:104BA0004FF080530069C5F82435031D03C9344311
:104BB0002243C5F86C2583E803000020F0BD4FF4C4
:104BC0001D03EFE7134BEDE74FF49E23EAE74FF4A5
:104BD000A033E7E74FF41C33E4E74FF41D23E1E78C
:104BE0000D4BDFE70D4BDDE74FF06C73DAE70C4B55
:104BF000D8E74FF46503D5E74FF07063D2E74FF085
:104C00008063CFE700B0130000A04E0090D00300F7
:104C100040420F000050270000C0750000F03A002D
:104C200000903A012DE9F043D0F804800669D8F8E5
:104C30000050D8F80C9087B00021C5F80015074641
:104C4000306005AA484604F0E8FC041E25DB059BFD
:104C5000D9F800201979186804F036FD041E1CDB11
:104C6000311D3846FFF72CFF0446B0B9D8F80430A0
:104C7000990729D506F1120001F026FA274B984230
:104C80000FD0274B0094CDE9014320462346254908
:104C90000122FFF703FF6FF00404204607B0BDE8D0
:104CA000F083B07CC30003F1804303F5F83305F1D2
:104CB0000C0205F59071C3F81015C3F814251A4AB3
:104CC00001238340C2F804350823C5F8003598F85D
:104CD00008305BB9C5F81031D5F8103106F1110371
:104CE000C5F834350123C5F838352B60D8F80430C1
:104CF0009A075CBF4FF48072C5F80423DB0644BFFB
:104D00004FF48003C5F8043310360023C5F844651A
:104D1000C5F848350123AB60EB60BEE70000AD0B82
:104D2000ADB60000749D000000F00140F8B50669C2
:104D300005460F4604F03AFE10B92C4B1B7883B998
:104D40004FF02003EFF3118483F31288BFF36F8FCA
:104D5000686804F0F6FB28BB84F31188BFF36F8FFB
:104D6000EEE76424686804F0ECFB70B9012004F0FD
:104D70005FFD013CF6D10021212003F097F9F0E717
:104D800084F31188BFF36F8FF5E74FF02003EFF343
:104D9000118483F31288BFF36F8F686804F0D1FB2E
:104DA0000028EDD006F8107F69680B680122C3F86F
:104DB0004465C3F848250022C3F82021D3F8200118
:104DC000C3F85821D3F858214A68D20641BF0822B7
:104DD000C3F800254FF48002C3F8042301229A602F
:104DE00084F31188BFF36F8FF8BD00BF0613002056
:104DF00010B501238340114ABFF35B8FDC4352E8B7
:104E0000001F01EA040C42E800CEBEF1000FF6D10B
:104E1000BFF35B8F4FF4803202FA00F002F1804260
:104E200002F58052C2F80803BFF35F8FBFF36F8FA4
:104E30000B4214BF0120002010BD00BF100C002049
:104E40001949F8B5044622F07F450868C1E90023F6
:104E5000A5F50013101AB3F5400F22D2134B1B68AF
:104E60001A0A1B065E19124B42F10007C3E90067DC
:104E7000012603F01FFCA30003F1804303F58833F0
:104E8000D3F84025AA420BD11EB94FF40002C3F853
:104E90004025084B4FF4803000FA04F4C3F8444333
:104EA000F8BD0026E5E700BF78040020140C0020C0
:104EB000600400200010014019B3BFF35B8F012391
:104EC000104A834052E8001F194342E8001CBCF11D
:104ED000000FF7D1BFF35B8F0B4A4FF48033834051
:104EE000C2F80433094BBFF35B8F1B68BFF35B8FC2
:104EF00023FA00F0C30742BF054B4FF40032C3F85A
:104F000000217047100C0020001001400C0C002004
:104F100000E100E00D4B1868010A0006BFF35F8F47
:104F20000B4BD3F80435181841F10001B3F5801F7D
:104F30000AD2084BD3E90023904271EB030303D25A
:104F400010F1807041F10001704700BF140C002087
:104F500000100140600400202DE9F04F85B0164696
:104F600098460546FFF744FF0090FFF7D3FFB04295
:104F700071EB080378D2464B301A68EB0101984276
:104F800071F1000380F08180424B03EB0513D3E9FC
:104F900002ABD84508BF564551D04FEA850909F103
:104FA000804905F1500709F58839BF004FF4803179
:104FB00001FA05F3BFB226F07F4207F18047019363
:104FC000D9F84005344B07F588371446D3F8041553
:104FD000401A20F07F4021F07F4C0128C9F840C5DD
:104FE00007D1CDE90221132004F02CFDDDE90221D7
:104FF000294B01F1020CA4EB0C0020F07F40B0F52E
:10500000000F88BF64460020386038680198C3F8F4
:10501000440324F07F40C9F84005D3F804058142D9
:1050200006D0201A023820F07F40B0F5000F19D8C2
:10503000A41A24F07F4414EB060A48F1000B15492A
:105040000E982B0101EB0512C2E902ABC8500F9B71
:105050005360002428460099FFF72EFF204605B034
:10506000BDE8F08F2046B1E701230C4ABFF35B8F08
:10507000AB4052E8001F194342E800100028F8D165
:10508000BFF35B8FB246C346D9E76FF01504E1E783
:105090000100000168040020001001400C0C0020F9
:1050A00073B5194B194D00244FF0FF304FF0FF310D
:1050B000C5F80845C3E902014FF48033C5F804334D
:1050C000134B02264FF400320121C5F8046311206E
:1050D000C3F880212246FEF737F81120FEF716F8B4
:1050E0000C4A0123AB602B6013600B4B0B4A0093FF
:1050F000019400232046FFF72FFF3046FFF704FA04
:10510000204602B070BD00BF6804002000100140BE
:1051100000E100E0100C0020414E0000FFFF7F0086
:105120002DE9F743354CD4F804339A070BD5D4F85E
:10513000043143B1324A0023C4F80431D4F80431B5
:105140001368013313604FF02003EFF3118283F3F0
:105150001288BFF36F8FD4F80433DB0312D5BFF38B
:105160005B8F284B53E8001F21F0010043E8000645
:10517000002EF7D1BFF35B8F002936D1D4F8403130
:10518000002B32D1002382F31188BFF36F8F4BB312
:10519000FFF7C0FE4FF02003EFF3118C83F312886A
:1051A000BFF36F8F184BD3E90267B04271EB070270
:1051B0004FF0000220D34FF0FF384FF0FF39D3E912
:1051C0000015C3E902891A604FF48033C4F84833EC
:1051D0008CF31188BFF36F8F21B1009532463B46A7
:1051E0000020884703B0BDE8F0830023C4F84031B5
:1051F000D4F840310123C6E71146E9E70010014029
:10520000140C00200C0C002068040020431C13B573
:1052100021D0012821DDB0F5000F20DA441EFFF770
:1052200079FE104BD3E90013401AB0F5000F28BFE8
:105230000024013002190C48824228BF024652184D
:105240004FF0000009490190009143F10003FFF77E
:1052500083FE02B010BD0448E0E70024DFE7024C03
:10526000DDE700BF78040020FFFF7F00414E000013
:1052700008B5FFF74FFE024B1B68C01A08BD00BF00
:10528000780400200268530910B504462CD0012B85
:105290004FF6FF7318BF002302F01F02D340DB0755
:1052A0000BD414491448154A40F2292303F071FF26
:1052B000124840F2292103F065FF236803F01F0222
:1052C0005B0922600DD0012B11D00D490A480B4A11
:1052D00040F22E2303F05DFF084840F22E2103F038
:1052E00051FF4FF0A04010BD4FF0FF33D4E7054809
:1052F000F9E700BF70B6000007A100003DB600004E
:10530000AAA20000000300507FB50BAB05930393E6
:10531000054B02930023CDE9003301221846FDF727
:105320000FFB07B05DF804FBEAB600001FB5FDF700
:10533000ABF80024064B02932046CDE90044054912
:1053400023460122FFF7E0FF2046FEF73FFD00BFA6
:10535000EAB600003C9D00004FF08053D3F83021A6
:10536000082A06D1D3F83431052B02D8024AD05C82
:1053700070470020704700BF0DB70000024AD2F806
:105380000034002BFBD0704700E0014010B504F062
:1053900045FA40B14FF080430022C3F80C21C3F816
:1053A0001021C3F8382504F039FA002846D04FF010
:1053B0008052604BD2F80414C3F82015D2F80814B8
:1053C000C3F82415D2F80C14C3F82815D2F8101419
:1053D000C3F82C15D2F81414C3F83015D2F81814E9
:1053E000C3F83415D2F81C14C3F84015D2F82014B1
:1053F000C3F84415D2F82414C3F84815D2F8281479
:10540000C3F84C15D2F82C14C3F85015D2F8301448
:10541000C3F85415D2F83414C3F86015D2F8381410
:10542000C3F86415D2F83C14C3F86815D2F84014D8
:10543000C3F86C15D2F84424C3F87025FFF78CFF2D
:1054400018B13D4B3D4AC3F88C26FFF785FF18B1D4
:105450003B4BFB22C3F81825FFF77EFF70B14FF0DE
:1054600080414FF08053D1F8E42ED3F8583222F027
:105470000F0203F00F031343C1F8E43EFFF76CFF84
:1054800020B1304B4FF40072C3F8402604F0C6F947
:1054900048B14FF08043D3F80024D20744BF6FF0E7
:1054A0000102C3F800244FF08053D3F83021082ABA
:1054B0000ED1D3F83431052B02D8234AD35C3BB14B
:1054C0004FF01023D3F808224FF08043C3F858253B
:1054D0004FF01023D3F80022002A03DBD3F8043264
:1054E000002B22DA194901234FF01020C1F80435AE
:1054F0001224FFF743FFC0F80042FFF73FFFC0F858
:105500000442FFF73BFF0023C1F80435FFF736FFE5
:10551000BFF34F8F0E490F4BCA6802F4E06213438A
:10552000CB60BFF34F8F00BFFDE70B4B0B4A1A60F8
:1055300010BD00BF00C00040005000404881030083
:1055400000F000400090024007B7000000E001407A
:1055500000ED00E00400FA05F00000200090D00308
:1055600070B501250268B2FA82F3C3F11F035E1C15
:10557000DCB214D0BFF35B8F05FA03F322EA030316
:1055800050E8006F964204D140E8003CBCF1000FA7
:10559000F6D1BFF35B8FE5D102480C7070BD0248B5
:1055A000FCE700BF0000AD0B0200AD0B0368CB4071
:1055B000DB0710B515D4012303FA01F10368BFF32B
:1055C0005B8F41EA030250E8004F9C4204D140E85F
:1055D000002CBCF1000FF6D1BFF35B8FEED1024877
:1055E00010BD0248FCE700BF0000AD0B0400AD0B8E
:1055F000F7B5044670B1012831D031493148324AFB
:10560000D82303F0C6FD3048D82103B0BDE8F040F0
:1056100003F0B8BD4FF080430222C3F80823C3F85B
:105620000401D3F804210122DA6001239C428DF8A1
:10563000073014BF00250DF1070542F210774FF037
:105640008046BCB1012C2CD01D491E481F4A4FF486
:105650004F7303F09EFD1D484FF44F71D5E74FF097
:1056600080430022C3F80803C3F80021D3F80021C7
:105670005860DAE725B1D6F8183403F003032B603D
:10568000D6F81834DA0319D51DB19DF80730012B6F
:1056900004D1012004F0CCF8013FD2D1012C0AD072
:1056A0000CE025B1D6F80C3403F001032B70D6F8CA
:1056B0000C34DB03E8D4064B00225A7103B0F0BD72
:1056C000AAA2000007A1000013B7000050B7000015
:1056D000180C002010B5044658B90B490B480C4A69
:1056E00040F2151303F055FD094840F2151103F07F
:1056F00049FD084B1A7922B9012207481C609A809B
:1057000010BD0648FCE700BF84B7000007A10000F9
:1057100013B70000180C00200000AD0B0C00AD0BFF
:1057200008B50D4B1B795BB90C490D480D4A4FF478
:10573000977303F02EFD0B484FF4977103F022FD91
:105740000020FDF7F3FC08B9FDF7E0FC4FF08043C3
:105750000022C3F8182508BD180C002092B70000DD
:1057600007A1000013B700002C4B1B7910B50446AD
:105770005BB92B492B482C4A4FF4B47303F009FD55
:1057800029484FF4B47103F0FDFC7CB1012C3AD0F0
:1057900026492448244A4FF4D37303F0FAFCBDE8A9
:1057A000104021484FF4D37103F0ECBC4FF080421D
:1057B000D2F81814D2F8183413F480330BD1D2F87D
:1057C0001414C90710D5D2F81C349B0708D402233F
:1057D000C2F8043316E001F00303012B04D01BB11F
:1057E0000020FFF705FF00234FF08042C2F8183574
:1057F0000023C2F80431D2F804310223C2F8043382
:105800000123936010BD4FF080430022C3F80021B4
:10581000D3F80021C3F804431C60F3E7180C002000
:1058200092B7000007A1000013B70000AAA2000071
:105830000A4B1B7910B504465BB9094909480A4A65
:1058400040F2AD1303F0A5FC074840F2AD1103F0A0
:1058500099FC2046BDE81040FFF7CABE180C002096
:1058600092B7000007A1000013B700004FF080437B
:1058700010B5D3F800216AB10022C3F80021D3F893
:1058800000210122C3F80823114B587910B95A712D
:105890001B6898474FF08043D3F8042172B100226F
:1058A000C3F80421D3F80421D3F81824D3F818142A
:1058B000920704D10122C3F818259A6010BD022274
:1058C000C3F80823024BBDE810401B6801201847AD
:1058D000180C0020034B083033F81000C0F34010C0
:1058E000704700BFF4000020044B083033F810006C
:1058F00010F01C0018BF0120704700BFF40000200A
:10590000034B083033F81000C0F34000704700BF6D
:10591000F400002070B500F108030C4C34F813308B
:10592000DA0505460E4607D5C3F3432304EBC3024D
:1059300054F8333052689847A3682BB1E268314677
:105940002846BDE87040184770BD00BFF400002035
:10595000194A083010B532F81030D9051DD5C3F3F7
:10596000432123F4F85322F8103002F110040020F0
:1059700034F8023B13F4807F03D0C3F343239942EE
:105980000BD001303028F3D1002342F831300B48DE
:10599000FFF70CFE0A4B984200D110BD09490A4896
:1059A0000A4A4FF4997303F0F4FBBDE8104007482E
:1059B0004FF4997103F0E6BBF40000206801002069
:1059C0000000AD0B14B8000007A10000B0B7000044
:1059D00038B50246FFF77EFF094C02F1080540B1D9
:1059E00034F8153007495B0B03F5A273002041F82A
:1059F00023001046FFF7ACFF002324F8153038BD14
:105A0000F40000200060004010B50446006803F078
:105A100011FF58B912491348134A40F2292303F0E1
:105A2000B8FB114840F2292103F0ACFB236803F0D6
:105A30001F025B0922600DD0012B0ED00B490948D3
:105A4000094A40F22E2303F0A4FB074840F22E211E
:105A500003F098FB4FF0A04010BD0548FCE700BFE5
:105A600070B6000007A100003DB60000AAA2000029
:105A700000030050F0B5044685B017461D46F1B14D
:105A800003F0E9FE10B14D4805B0F0BD0B46CDE97D
:105A900000008DF80E008DF80F000DF10F020DF1D2
:105AA0000E01204603F0E6FE454A04F1080132F8F3
:105AB000113023F0020343F0010322F8113097B1B3
:105AC00020463E787A68FFF71BFF80B1002ADAD1C2
:105AD0003B4A04F1080132F8113023F01C0343EA79
